{
	"data": {
		"bytecode": {
			"linkReferences": {},
			"object": "608060405234801561000f575f5ffd5b506100225f5f1b3361002860201b60201c565b50610187565b5f610039838361011d60201b60201c565b6101135760015f5f8581526020019081526020015f205f015f8473ffffffffffffffffffffffffffffffffffffffff1673ffffffffffffffffffffffffffffffffffffffff1681526020019081526020015f205f6101000a81548160ff0219169083151502179055506100b061018060201b60201c565b73ffffffffffffffffffffffffffffffffffffffff168273ffffffffffffffffffffffffffffffffffffffff16847f2f8788117e7eff1d82e926ec794901d17c78024a50270940304540a733656f0d60405160405180910390a460019050610117565b5f90505b92915050565b5f5f5f8481526020019081526020015f205f015f8373ffffffffffffffffffffffffffffffffffffffff1673ffffffffffffffffffffffffffffffffffffffff1681526020019081526020015f205f9054906101000a900460ff16905092915050565b5f33905090565b610bfa806101945f395ff3fe608060405234801561000f575f5ffd5b50600436106100b2575f3560e01c80638381f58a1161006f5780638381f58a146101885780638f4d8dd6146101a657806391d14854146101c4578063a217fddf146101f4578063d09de08a14610212578063d547741f1461021c576100b2565b806301ffc9a7146100b65780630d67b845146100e6578063248a9ca3146101045780632f2ff15d1461013457806336568abe146101505780633fb5c1cb1461016c575b5f5ffd5b6100d060048036038101906100cb9190610838565b610238565b6040516100dd919061087d565b60405180910390f35b6100ee6102b1565b6040516100fb91906108ae565b60405180910390f35b61011e600480360381019061011991906108f1565b6102d5565b60405161012b91906108ae565b60405180910390f35b61014e60048036038101906101499190610976565b6102f1565b005b61016a60048036038101906101659190610976565b610313565b005b610186600480360381019061018191906109e7565b61038e565b005b610190610401565b60405161019d9190610a21565b60405180910390f35b6101ae610407565b6040516101bb91906108ae565b60405180910390f35b6101de60048036038101906101d99190610976565b61042b565b6040516101eb919061087d565b60405180910390f35b6101fc61048e565b60405161020991906108ae565b60405180910390f35b61021a610494565b005b61023660048036038101906102319190610976565b610516565b005b5f7f7965db0b000000000000000000000000000000000000000000000000000000007bffffffffffffffffffffffffffffffffffffffffffffffffffffffff1916827bffffffffffffffffffffffffffffffffffffffffffffffffffffffff191614806102aa57506102a982610538565b5b9050919050565b7f3e7a4720443f3d14f410e4f1d5d962c3e33cbd8f72cd1bcee58ed2d4fbe2b34581565b5f5f5f8381526020019081526020015f20600101549050919050565b6102fa826102d5565b610303816105a1565b61030d83836105b5565b50505050565b61031b61069e565b73ffffffffffffffffffffffffffffffffffffffff168173ffffffffffffffffffffffffffffffffffffffff161461037f576040517f6697b23200000000000000000000000000000000000000000000000000000000815260040160405180910390fd5b61038982826106a5565b505050565b6103b87f2e05078cc05094ba07ed61655402a9a69e0d91ee38a65b383bdf79b2151992173361042b565b6103f7576040517f08c379a00000000000000000000000000000000000000000000000000000000081526004016103ee90610a94565b60405180910390fd5b8060018190555050565b60015481565b7f2e05078cc05094ba07ed61655402a9a69e0d91ee38a65b383bdf79b21519921781565b5f5f5f8481526020019081526020015f205f015f8373ffffffffffffffffffffffffffffffffffffffff1673ffffffffffffffffffffffffffffffffffffffff1681526020019081526020015f205f9054906101000a900460ff16905092915050565b5f5f1b81565b6104be7f3e7a4720443f3d14f410e4f1d5d962c3e33cbd8f72cd1bcee58ed2d4fbe2b3453361042b565b6104fd576040517f08c379a00000000000000000000000000000000000000000000000000000000081526004016104f490610afc565b60405180910390fd5b60015f81548092919061050f90610b47565b9190505550565b61051f826102d5565b610528816105a1565b61053283836106a5565b50505050565b5f7f01ffc9a7000000000000000000000000000000000000000000000000000000007bffffffffffffffffffffffffffffffffffffffffffffffffffffffff1916827bffffffffffffffffffffffffffffffffffffffffffffffffffffffff1916149050919050565b6105b2816105ad61069e565b61078e565b50565b5f6105c0838361042b565b6106945760015f5f8581526020019081526020015f205f015f8473ffffffffffffffffffffffffffffffffffffffff1673ffffffffffffffffffffffffffffffffffffffff1681526020019081526020015f205f6101000a81548160ff02191690831515021790555061063161069e565b73ffffffffffffffffffffffffffffffffffffffff168273ffffffffffffffffffffffffffffffffffffffff16847f2f8788117e7eff1d82e926ec794901d17c78024a50270940304540a733656f0d60405160405180910390a460019050610698565b5f90505b92915050565b5f33905090565b5f6106b0838361042b565b15610784575f5f5f8581526020019081526020015f205f015f8473ffffffffffffffffffffffffffffffffffffffff1673ffffffffffffffffffffffffffffffffffffffff1681526020019081526020015f205f6101000a81548160ff02191690831515021790555061072161069e565b73ffffffffffffffffffffffffffffffffffffffff168273ffffffffffffffffffffffffffffffffffffffff16847ff6391f5c32d9c69d2a47ea670b442974b53935d1edc7fd64eb21e047a839171b60405160405180910390a460019050610788565b5f90505b92915050565b610798828261042b565b6107db5780826040517fe2517d3f0000000000000000000000000000000000000000000000000000000081526004016107d2929190610b9d565b60405180910390fd5b5050565b5f5ffd5b5f7fffffffff0000000000000000000000000000000000000000000000000000000082169050919050565b610817816107e3565b8114610821575f5ffd5b50565b5f813590506108328161080e565b92915050565b5f6020828403121561084d5761084c6107df565b5b5f61085a84828501610824565b91505092915050565b5f8115159050919050565b61087781610863565b82525050565b5f6020820190506108905f83018461086e565b92915050565b5f819050919050565b6108a881610896565b82525050565b5f6020820190506108c15f83018461089f565b92915050565b6108d081610896565b81146108da575f5ffd5b50565b5f813590506108eb816108c7565b92915050565b5f60208284031215610906576109056107df565b5b5f610913848285016108dd565b91505092915050565b5f73ffffffffffffffffffffffffffffffffffffffff82169050919050565b5f6109458261091c565b9050919050565b6109558161093b565b811461095f575f5ffd5b50565b5f813590506109708161094c565b92915050565b5f5f6040838503121561098c5761098b6107df565b5b5f610999858286016108dd565b92505060206109aa85828601610962565b9150509250929050565b5f819050919050565b6109c6816109b4565b81146109d0575f5ffd5b50565b5f813590506109e1816109bd565b92915050565b5f602082840312156109fc576109fb6107df565b5b5f610a09848285016109d3565b91505092915050565b610a1b816109b4565b82525050565b5f602082019050610a345f830184610a12565b92915050565b5f82825260208201905092915050565b7f52657175697265206e756d6265722073657474657220726f6c650000000000005f82015250565b5f610a7e601a83610a3a565b9150610a8982610a4a565b602082019050919050565b5f6020820190508181035f830152610aab81610a72565b9050919050565b7f4e6f74207065726d697373696f6e6564000000000000000000000000000000005f82015250565b5f610ae6601083610a3a565b9150610af182610ab2565b602082019050919050565b5f6020820190508181035f830152610b1381610ada565b9050919050565b7f4e487b71000000000000000000000000000000000000000000000000000000005f52601160045260245ffd5b5f610b51826109b4565b91507fffffffffffffffffffffffffffffffffffffffffffffffffffffffffffffffff8203610b8357610b82610b1a565b5b600182019050919050565b610b978161093b565b82525050565b5f604082019050610bb05f830185610b8e565b610bbd602083018461089f565b939250505056fea264697066735822122087087fb3aecf5a331ae72a56f8b3e678b7996b3d4fa0df5db0c169b80fa356f464736f6c634300081e0033",
			"opcodes": "PUSH1 0x80 PUSH1 0x40 MSTORE CALLVALUE DUP1 ISZERO PUSH2 0xF JUMPI PUSH0 PUSH0 REVERT JUMPDEST POP PUSH2 0x22 PUSH0 PUSH0 SHL CALLER PUSH2 0x28 PUSH1 0x20 SHL PUSH1 0x20 SHR JUMP JUMPDEST POP PUSH2 0x187 JUMP JUMPDEST PUSH0 PUSH2 0x39 DUP4 DUP4 PUSH2 0x11D PUSH1 0x20 SHL PUSH1 0x20 SHR JUMP JUMPDEST PUSH2 0x113 JUMPI PUSH1 0x1 PUSH0 PUSH0 DUP6 DUP2 MSTORE PUSH1 0x20 ADD SWAP1 DUP2 MSTORE PUSH1 0x20 ADD PUSH0 KECCAK256 PUSH0 ADD PUSH0 DUP5 PUSH20 0xFFFFFFFFFFFFFFFFFFFFFFFFFFFFFFFFFFFFFFFF AND PUSH20 0xFFFFFFFFFFFFFFFFFFFFFFFFFFFFFFFFFFFFFFFF AND DUP2 MSTORE PUSH1 0x20 ADD SWAP1 DUP2 MSTORE PUSH1 0x20 ADD PUSH0 KECCAK256 PUSH0 PUSH2 0x100 EXP DUP2 SLOAD DUP2 PUSH1 0xFF MUL NOT AND SWAP1 DUP4 ISZERO ISZERO MUL OR SWAP1 SSTORE POP PUSH2 0xB0 PUSH2 0x180 PUSH1 0x20 SHL PUSH1 0x20 SHR JUMP JUMPDEST PUSH20 0xFFFFFFFFFFFFFFFFFFFFFFFFFFFFFFFFFFFFFFFF AND DUP3 PUSH20 0xFFFFFFFFFFFFFFFFFFFFFFFFFFFFFFFFFFFFFFFF AND DUP5 PUSH32 0x2F8788117E7EFF1D82E926EC794901D17C78024A50270940304540A733656F0D PUSH1 0x40 MLOAD PUSH1 0x40 MLOAD DUP1 SWAP2 SUB SWAP1 LOG4 PUSH1 0x1 SWAP1 POP PUSH2 0x117 JUMP JUMPDEST PUSH0 SWAP1 POP JUMPDEST SWAP3 SWAP2 POP POP JUMP JUMPDEST PUSH0 PUSH0 PUSH0 DUP5 DUP2 MSTORE PUSH1 0x20 ADD SWAP1 DUP2 MSTORE PUSH1 0x20 ADD PUSH0 KECCAK256 PUSH0 ADD PUSH0 DUP4 PUSH20 0xFFFFFFFFFFFFFFFFFFFFFFFFFFFFFFFFFFFFFFFF AND PUSH20 0xFFFFFFFFFFFFFFFFFFFFFFFFFFFFFFFFFFFFFFFF AND DUP2 MSTORE PUSH1 0x20 ADD SWAP1 DUP2 MSTORE PUSH1 0x20 ADD PUSH0 KECCAK256 PUSH0 SWAP1 SLOAD SWAP1 PUSH2 0x100 EXP SWAP1 DIV PUSH1 0xFF AND SWAP1 POP SWAP3 SWAP2 POP POP JUMP JUMPDEST PUSH0 CALLER SWAP1 POP SWAP1 JUMP JUMPDEST PUSH2 0xBFA DUP1 PUSH2 0x194 PUSH0 CODECOPY PUSH0 RETURN INVALID PUSH1 0x80 PUSH1 0x40 MSTORE CALLVALUE DUP1 ISZERO PUSH2 0xF JUMPI PUSH0 PUSH0 REVERT JUMPDEST POP PUSH1 0x4 CALLDATASIZE LT PUSH2 0xB2 JUMPI PUSH0 CALLDATALOAD PUSH1 0xE0 SHR DUP1 PUSH4 0x8381F58A GT PUSH2 0x6F JUMPI DUP1 PUSH4 0x8381F58A EQ PUSH2 0x188 JUMPI DUP1 PUSH4 0x8F4D8DD6 EQ PUSH2 0x1A6 JUMPI DUP1 PUSH4 0x91D14854 EQ PUSH2 0x1C4 JUMPI DUP1 PUSH4 0xA217FDDF EQ PUSH2 0x1F4 JUMPI DUP1 PUSH4 0xD09DE08A EQ PUSH2 0x212 JUMPI DUP1 PUSH4 0xD547741F EQ PUSH2 0x21C JUMPI PUSH2 0xB2 JUMP JUMPDEST DUP1 PUSH4 0x1FFC9A7 EQ PUSH2 0xB6 JUMPI DUP1 PUSH4 0xD67B845 EQ PUSH2 0xE6 JUMPI DUP1 PUSH4 0x248A9CA3 EQ PUSH2 0x104 JUMPI DUP1 PUSH4 0x2F2FF15D EQ PUSH2 0x134 JUMPI DUP1 PUSH4 0x36568ABE EQ PUSH2 0x150 JUMPI DUP1 PUSH4 0x3FB5C1CB EQ PUSH2 0x16C JUMPI JUMPDEST PUSH0 PUSH0 REVERT JUMPDEST PUSH2 0xD0 PUSH1 0x4 DUP1 CALLDATASIZE SUB DUP2 ADD SWAP1 PUSH2 0xCB SWAP2 SWAP1 PUSH2 0x838 JUMP JUMPDEST PUSH2 0x238 JUMP JUMPDEST PUSH1 0x40 MLOAD PUSH2 0xDD SWAP2 SWAP1 PUSH2 0x87D JUMP JUMPDEST PUSH1 0x40 MLOAD DUP1 SWAP2 SUB SWAP1 RETURN JUMPDEST PUSH2 0xEE PUSH2 0x2B1 JUMP JUMPDEST PUSH1 0x40 MLOAD PUSH2 0xFB SWAP2 SWAP1 PUSH2 0x8AE JUMP JUMPDEST PUSH1 0x40 MLOAD DUP1 SWAP2 SUB SWAP1 RETURN JUMPDEST PUSH2 0x11E PUSH1 0x4 DUP1 CALLDATASIZE SUB DUP2 ADD SWAP1 PUSH2 0x119 SWAP2 SWAP1 PUSH2 0x8F1 JUMP JUMPDEST PUSH2 0x2D5 JUMP JUMPDEST PUSH1 0x40 MLOAD PUSH2 0x12B SWAP2 SWAP1 PUSH2 0x8AE JUMP JUMPDEST PUSH1 0x40 MLOAD DUP1 SWAP2 SUB SWAP1 RETURN JUMPDEST PUSH2 0x14E PUSH1 0x4 DUP1 CALLDATASIZE SUB DUP2 ADD SWAP1 PUSH2 0x149 SWAP2 SWAP1 PUSH2 0x976 JUMP JUMPDEST PUSH2 0x2F1 JUMP JUMPDEST STOP JUMPDEST PUSH2 0x16A PUSH1 0x4 DUP1 CALLDATASIZE SUB DUP2 ADD SWAP1 PUSH2 0x165 SWAP2 SWAP1 PUSH2 0x976 JUMP JUMPDEST PUSH2 0x313 JUMP JUMPDEST STOP JUMPDEST PUSH2 0x186 PUSH1 0x4 DUP1 CALLDATASIZE SUB DUP2 ADD SWAP1 PUSH2 0x181 SWAP2 SWAP1 PUSH2 0x9E7 JUMP JUMPDEST PUSH2 0x38E JUMP JUMPDEST STOP JUMPDEST PUSH2 0x190 PUSH2 0x401 JUMP JUMPDEST PUSH1 0x40 MLOAD PUSH2 0x19D SWAP2 SWAP1 PUSH2 0xA21 JUMP JUMPDEST PUSH1 0x40 MLOAD DUP1 SWAP2 SUB SWAP1 RETURN JUMPDEST PUSH2 0x1AE PUSH2 0x407 JUMP JUMPDEST PUSH1 0x40 MLOAD PUSH2 0x1BB SWAP2 SWAP1 PUSH2 0x8AE JUMP JUMPDEST PUSH1 0x40 MLOAD DUP1 SWAP2 SUB SWAP1 RETURN JUMPDEST PUSH2 0x1DE PUSH1 0x4 DUP1 CALLDATASIZE SUB DUP2 ADD SWAP1 PUSH2 0x1D9 SWAP2 SWAP1 PUSH2 0x976 JUMP JUMPDEST PUSH2 0x42B JUMP JUMPDEST PUSH1 0x40 MLOAD PUSH2 0x1EB SWAP2 SWAP1 PUSH2 0x87D JUMP JUMPDEST PUSH1 0x40 MLOAD DUP1 SWAP2 SUB SWAP1 RETURN JUMPDEST PUSH2 0x1FC PUSH2 0x48E JUMP JUMPDEST PUSH1 0x40 MLOAD PUSH2 0x209 SWAP2 SWAP1 PUSH2 0x8AE JUMP JUMPDEST PUSH1 0x40 MLOAD DUP1 SWAP2 SUB SWAP1 RETURN JUMPDEST PUSH2 0x21A PUSH2 0x494 JUMP JUMPDEST STOP JUMPDEST PUSH2 0x236 PUSH1 0x4 DUP1 CALLDATASIZE SUB DUP2 ADD SWAP1 PUSH2 0x231 SWAP2 SWAP1 PUSH2 0x976 JUMP JUMPDEST PUSH2 0x516 JUMP JUMPDEST STOP JUMPDEST PUSH0 PUSH32 0x7965DB0B00000000000000000000000000000000000000000000000000000000 PUSH28 0xFFFFFFFFFFFFFFFFFFFFFFFFFFFFFFFFFFFFFFFFFFFFFFFFFFFFFFFF NOT AND DUP3 PUSH28 0xFFFFFFFFFFFFFFFFFFFFFFFFFFFFFFFFFFFFFFFFFFFFFFFFFFFFFFFF NOT AND EQ DUP1 PUSH2 0x2AA JUMPI POP PUSH2 0x2A9 DUP3 PUSH2 0x538 JUMP JUMPDEST JUMPDEST SWAP1 POP SWAP2 SWAP1 POP JUMP JUMPDEST PUSH32 0x3E7A4720443F3D14F410E4F1D5D962C3E33CBD8F72CD1BCEE58ED2D4FBE2B345 DUP2 JUMP JUMPDEST PUSH0 PUSH0 PUSH0 DUP4 DUP2 MSTORE PUSH1 0x20 ADD SWAP1 DUP2 MSTORE PUSH1 0x20 ADD PUSH0 KECCAK256 PUSH1 0x1 ADD SLOAD SWAP1 POP SWAP2 SWAP1 POP JUMP JUMPDEST PUSH2 0x2FA DUP3 PUSH2 0x2D5 JUMP JUMPDEST PUSH2 0x303 DUP2 PUSH2 0x5A1 JUMP JUMPDEST PUSH2 0x30D DUP4 DUP4 PUSH2 0x5B5 JUMP JUMPDEST POP POP POP POP JUMP JUMPDEST PUSH2 0x31B PUSH2 0x69E JUMP JUMPDEST PUSH20 0xFFFFFFFFFFFFFFFFFFFFFFFFFFFFFFFFFFFFFFFF AND DUP2 PUSH20 0xFFFFFFFFFFFFFFFFFFFFFFFFFFFFFFFFFFFFFFFF AND EQ PUSH2 0x37F JUMPI PUSH1 0x40 MLOAD PUSH32 0x6697B23200000000000000000000000000000000000000000000000000000000 DUP2 MSTORE PUSH1 0x4 ADD PUSH1 0x40 MLOAD DUP1 SWAP2 SUB SWAP1 REVERT JUMPDEST PUSH2 0x389 DUP3 DUP3 PUSH2 0x6A5 JUMP JUMPDEST POP POP POP JUMP JUMPDEST PUSH2 0x3B8 PUSH32 0x2E05078CC05094BA07ED61655402A9A69E0D91EE38A65B383BDF79B215199217 CALLER PUSH2 0x42B JUMP JUMPDEST PUSH2 0x3F7 JUMPI PUSH1 0x40 MLOAD PUSH32 0x8C379A000000000000000000000000000000000000000000000000000000000 DUP2 MSTORE PUSH1 0x4 ADD PUSH2 0x3EE SWAP1 PUSH2 0xA94 JUMP JUMPDEST PUSH1 0x40 MLOAD DUP1 SWAP2 SUB SWAP1 REVERT JUMPDEST DUP1 PUSH1 0x1 DUP2 SWAP1 SSTORE POP POP JUMP JUMPDEST PUSH1 0x1 SLOAD DUP2 JUMP JUMPDEST PUSH32 0x2E05078CC05094BA07ED61655402A9A69E0D91EE38A65B383BDF79B215199217 DUP2 JUMP JUMPDEST PUSH0 PUSH0 PUSH0 DUP5 DUP2 MSTORE PUSH1 0x20 ADD SWAP1 DUP2 MSTORE PUSH1 0x20 ADD PUSH0 KECCAK256 PUSH0 ADD PUSH0 DUP4 PUSH20 0xFFFFFFFFFFFFFFFFFFFFFFFFFFFFFFFFFFFFFFFF AND PUSH20 0xFFFFFFFFFFFFFFFFFFFFFFFFFFFFFFFFFFFFFFFF AND DUP2 MSTORE PUSH1 0x20 ADD SWAP1 DUP2 MSTORE PUSH1 0x20 ADD PUSH0 KECCAK256 PUSH0 SWAP1 SLOAD SWAP1 PUSH2 0x100 EXP SWAP1 DIV PUSH1 0xFF AND SWAP1 POP SWAP3 SWAP2 POP POP JUMP JUMPDEST PUSH0 PUSH0 SHL DUP2 JUMP JUMPDEST PUSH2 0x4BE PUSH32 0x3E7A4720443F3D14F410E4F1D5D962C3E33CBD8F72CD1BCEE58ED2D4FBE2B345 CALLER PUSH2 0x42B JUMP JUMPDEST PUSH2 0x4FD JUMPI PUSH1 0x40 MLOAD PUSH32 0x8C379A000000000000000000000000000000000000000000000000000000000 DUP2 MSTORE PUSH1 0x4 ADD PUSH2 0x4F4 SWAP1 PUSH2 0xAFC JUMP JUMPDEST PUSH1 0x40 MLOAD DUP1 SWAP2 SUB SWAP1 REVERT JUMPDEST PUSH1 0x1 PUSH0 DUP2 SLOAD DUP1 SWAP3 SWAP2 SWAP1 PUSH2 0x50F SWAP1 PUSH2 0xB47 JUMP JUMPDEST SWAP2 SWAP1 POP SSTORE POP JUMP JUMPDEST PUSH2 0x51F DUP3 PUSH2 0x2D5 JUMP JUMPDEST PUSH2 0x528 DUP2 PUSH2 0x5A1 JUMP JUMPDEST PUSH2 0x532 DUP4 DUP4 PUSH2 0x6A5 JUMP JUMPDEST POP POP POP POP JUMP JUMPDEST PUSH0 PUSH32 0x1FFC9A700000000000000000000000000000000000000000000000000000000 PUSH28 0xFFFFFFFFFFFFFFFFFFFFFFFFFFFFFFFFFFFFFFFFFFFFFFFFFFFFFFFF NOT AND DUP3 PUSH28 0xFFFFFFFFFFFFFFFFFFFFFFFFFFFFFFFFFFFFFFFFFFFFFFFFFFFFFFFF NOT AND EQ SWAP1 POP SWAP2 SWAP1 POP JUMP JUMPDEST PUSH2 0x5B2 DUP2 PUSH2 0x5AD PUSH2 0x69E JUMP JUMPDEST PUSH2 0x78E JUMP JUMPDEST POP JUMP JUMPDEST PUSH0 PUSH2 0x5C0 DUP4 DUP4 PUSH2 0x42B JUMP JUMPDEST PUSH2 0x694 JUMPI PUSH1 0x1 PUSH0 PUSH0 DUP6 DUP2 MSTORE PUSH1 0x20 ADD SWAP1 DUP2 MSTORE PUSH1 0x20 ADD PUSH0 KECCAK256 PUSH0 ADD PUSH0 DUP5 PUSH20 0xFFFFFFFFFFFFFFFFFFFFFFFFFFFFFFFFFFFFFFFF AND PUSH20 0xFFFFFFFFFFFFFFFFFFFFFFFFFFFFFFFFFFFFFFFF AND DUP2 MSTORE PUSH1 0x20 ADD SWAP1 DUP2 MSTORE PUSH1 0x20 ADD PUSH0 KECCAK256 PUSH0 PUSH2 0x100 EXP DUP2 SLOAD DUP2 PUSH1 0xFF MUL NOT AND SWAP1 DUP4 ISZERO ISZERO MUL OR SWAP1 SSTORE POP PUSH2 0x631 PUSH2 0x69E JUMP JUMPDEST PUSH20 0xFFFFFFFFFFFFFFFFFFFFFFFFFFFFFFFFFFFFFFFF AND DUP3 PUSH20 0xFFFFFFFFFFFFFFFFFFFFFFFFFFFFFFFFFFFFFFFF AND DUP5 PUSH32 0x2F8788117E7EFF1D82E926EC794901D17C78024A50270940304540A733656F0D PUSH1 0x40 MLOAD PUSH1 0x40 MLOAD DUP1 SWAP2 SUB SWAP1 LOG4 PUSH1 0x1 SWAP1 POP PUSH2 0x698 JUMP JUMPDEST PUSH0 SWAP1 POP JUMPDEST SWAP3 SWAP2 POP POP JUMP JUMPDEST PUSH0 CALLER SWAP1 POP SWAP1 JUMP JUMPDEST PUSH0 PUSH2 0x6B0 DUP4 DUP4 PUSH2 0x42B JUMP JUMPDEST ISZERO PUSH2 0x784 JUMPI PUSH0 PUSH0 PUSH0 DUP6 DUP2 MSTORE PUSH1 0x20 ADD SWAP1 DUP2 MSTORE PUSH1 0x20 ADD PUSH0 KECCAK256 PUSH0 ADD PUSH0 DUP5 PUSH20 0xFFFFFFFFFFFFFFFFFFFFFFFFFFFFFFFFFFFFFFFF AND PUSH20 0xFFFFFFFFFFFFFFFFFFFFFFFFFFFFFFFFFFFFFFFF AND DUP2 MSTORE PUSH1 0x20 ADD SWAP1 DUP2 MSTORE PUSH1 0x20 ADD PUSH0 KECCAK256 PUSH0 PUSH2 0x100 EXP DUP2 SLOAD DUP2 PUSH1 0xFF MUL NOT AND SWAP1 DUP4 ISZERO ISZERO MUL OR SWAP1 SSTORE POP PUSH2 0x721 PUSH2 0x69E JUMP JUMPDEST PUSH20 0xFFFFFFFFFFFFFFFFFFFFFFFFFFFFFFFFFFFFFFFF AND DUP3 PUSH20 0xFFFFFFFFFFFFFFFFFFFFFFFFFFFFFFFFFFFFFFFF AND DUP5 PUSH32 0xF6391F5C32D9C69D2A47EA670B442974B53935D1EDC7FD64EB21E047A839171B PUSH1 0x40 MLOAD PUSH1 0x40 MLOAD DUP1 SWAP2 SUB SWAP1 LOG4 PUSH1 0x1 SWAP1 POP PUSH2 0x788 JUMP JUMPDEST PUSH0 SWAP1 POP JUMPDEST SWAP3 SWAP2 POP POP JUMP JUMPDEST PUSH2 0x798 DUP3 DUP3 PUSH2 0x42B JUMP JUMPDEST PUSH2 0x7DB JUMPI DUP1 DUP3 PUSH1 0x40 MLOAD PUSH32 0xE2517D3F00000000000000000000000000000000000000000000000000000000 DUP2 MSTORE PUSH1 0x4 ADD PUSH2 0x7D2 SWAP3 SWAP2 SWAP1 PUSH2 0xB9D JUMP JUMPDEST PUSH1 0x40 MLOAD DUP1 SWAP2 SUB SWAP1 REVERT JUMPDEST POP POP JUMP JUMPDEST PUSH0 PUSH0 REVERT JUMPDEST PUSH0 PUSH32 0xFFFFFFFF00000000000000000000000000000000000000000000000000000000 DUP3 AND SWAP1 POP SWAP2 SWAP1 POP JUMP JUMPDEST PUSH2 0x817 DUP2 PUSH2 0x7E3 JUMP JUMPDEST DUP2 EQ PUSH2 0x821 JUMPI PUSH0 PUSH0 REVERT JUMPDEST POP JUMP JUMPDEST PUSH0 DUP2 CALLDATALOAD SWAP1 POP PUSH2 0x832 DUP2 PUSH2 0x80E JUMP JUMPDEST SWAP3 SWAP2 POP POP JUMP JUMPDEST PUSH0 PUSH1 0x20 DUP3 DUP5 SUB SLT ISZERO PUSH2 0x84D JUMPI PUSH2 0x84C PUSH2 0x7DF JUMP JUMPDEST JUMPDEST PUSH0 PUSH2 0x85A DUP5 DUP3 DUP6 ADD PUSH2 0x824 JUMP JUMPDEST SWAP2 POP POP SWAP3 SWAP2 POP POP JUMP JUMPDEST PUSH0 DUP2 ISZERO ISZERO SWAP1 POP SWAP2 SWAP1 POP JUMP JUMPDEST PUSH2 0x877 DUP2 PUSH2 0x863 JUMP JUMPDEST DUP3 MSTORE POP POP JUMP JUMPDEST PUSH0 PUSH1 0x20 DUP3 ADD SWAP1 POP PUSH2 0x890 PUSH0 DUP4 ADD DUP5 PUSH2 0x86E JUMP JUMPDEST SWAP3 SWAP2 POP POP JUMP JUMPDEST PUSH0 DUP2 SWAP1 POP SWAP2 SWAP1 POP JUMP JUMPDEST PUSH2 0x8A8 DUP2 PUSH2 0x896 JUMP JUMPDEST DUP3 MSTORE POP POP JUMP JUMPDEST PUSH0 PUSH1 0x20 DUP3 ADD SWAP1 POP PUSH2 0x8C1 PUSH0 DUP4 ADD DUP5 PUSH2 0x89F JUMP JUMPDEST SWAP3 SWAP2 POP POP JUMP JUMPDEST PUSH2 0x8D0 DUP2 PUSH2 0x896 JUMP JUMPDEST DUP2 EQ PUSH2 0x8DA JUMPI PUSH0 PUSH0 REVERT JUMPDEST POP JUMP JUMPDEST PUSH0 DUP2 CALLDATALOAD SWAP1 POP PUSH2 0x8EB DUP2 PUSH2 0x8C7 JUMP JUMPDEST SWAP3 SWAP2 POP POP JUMP JUMPDEST PUSH0 PUSH1 0x20 DUP3 DUP5 SUB SLT ISZERO PUSH2 0x906 JUMPI PUSH2 0x905 PUSH2 0x7DF JUMP JUMPDEST JUMPDEST PUSH0 PUSH2 0x913 DUP5 DUP3 DUP6 ADD PUSH2 0x8DD JUMP JUMPDEST SWAP2 POP POP SWAP3 SWAP2 POP POP JUMP JUMPDEST PUSH0 PUSH20 0xFFFFFFFFFFFFFFFFFFFFFFFFFFFFFFFFFFFFFFFF DUP3 AND SWAP1 POP SWAP2 SWAP1 POP JUMP JUMPDEST PUSH0 PUSH2 0x945 DUP3 PUSH2 0x91C JUMP JUMPDEST SWAP1 POP SWAP2 SWAP1 POP JUMP JUMPDEST PUSH2 0x955 DUP2 PUSH2 0x93B JUMP JUMPDEST DUP2 EQ PUSH2 0x95F JUMPI PUSH0 PUSH0 REVERT JUMPDEST POP JUMP JUMPDEST PUSH0 DUP2 CALLDATALOAD SWAP1 POP PUSH2 0x970 DUP2 PUSH2 0x94C JUMP JUMPDEST SWAP3 SWAP2 POP POP JUMP JUMPDEST PUSH0 PUSH0 PUSH1 0x40 DUP4 DUP6 SUB SLT ISZERO PUSH2 0x98C JUMPI PUSH2 0x98B PUSH2 0x7DF JUMP JUMPDEST JUMPDEST PUSH0 PUSH2 0x999 DUP6 DUP3 DUP7 ADD PUSH2 0x8DD JUMP JUMPDEST SWAP3 POP POP PUSH1 0x20 PUSH2 0x9AA DUP6 DUP3 DUP7 ADD PUSH2 0x962 JUMP JUMPDEST SWAP2 POP POP SWAP3 POP SWAP3 SWAP1 POP JUMP JUMPDEST PUSH0 DUP2 SWAP1 POP SWAP2 SWAP1 POP JUMP JUMPDEST PUSH2 0x9C6 DUP2 PUSH2 0x9B4 JUMP JUMPDEST DUP2 EQ PUSH2 0x9D0 JUMPI PUSH0 PUSH0 REVERT JUMPDEST POP JUMP JUMPDEST PUSH0 DUP2 CALLDATALOAD SWAP1 POP PUSH2 0x9E1 DUP2 PUSH2 0x9BD JUMP JUMPDEST SWAP3 SWAP2 POP POP JUMP JUMPDEST PUSH0 PUSH1 0x20 DUP3 DUP5 SUB SLT ISZERO PUSH2 0x9FC JUMPI PUSH2 0x9FB PUSH2 0x7DF JUMP JUMPDEST JUMPDEST PUSH0 PUSH2 0xA09 DUP5 DUP3 DUP6 ADD PUSH2 0x9D3 JUMP JUMPDEST SWAP2 POP POP SWAP3 SWAP2 POP POP JUMP JUMPDEST PUSH2 0xA1B DUP2 PUSH2 0x9B4 JUMP JUMPDEST DUP3 MSTORE POP POP JUMP JUMPDEST PUSH0 PUSH1 0x20 DUP3 ADD SWAP1 POP PUSH2 0xA34 PUSH0 DUP4 ADD DUP5 PUSH2 0xA12 JUMP JUMPDEST SWAP3 SWAP2 POP POP JUMP JUMPDEST PUSH0 DUP3 DUP3 MSTORE PUSH1 0x20 DUP3 ADD SWAP1 POP SWAP3 SWAP2 POP POP JUMP JUMPDEST PUSH32 0x52657175697265206E756D6265722073657474657220726F6C65000000000000 PUSH0 DUP3 ADD MSTORE POP JUMP JUMPDEST PUSH0 PUSH2 0xA7E PUSH1 0x1A DUP4 PUSH2 0xA3A JUMP JUMPDEST SWAP2 POP PUSH2 0xA89 DUP3 PUSH2 0xA4A JUMP JUMPDEST PUSH1 0x20 DUP3 ADD SWAP1 POP SWAP2 SWAP1 POP JUMP JUMPDEST PUSH0 PUSH1 0x20 DUP3 ADD SWAP1 POP DUP2 DUP2 SUB PUSH0 DUP4 ADD MSTORE PUSH2 0xAAB DUP2 PUSH2 0xA72 JUMP JUMPDEST SWAP1 POP SWAP2 SWAP1 POP JUMP JUMPDEST PUSH32 0x4E6F74207065726D697373696F6E656400000000000000000000000000000000 PUSH0 DUP3 ADD MSTORE POP JUMP JUMPDEST PUSH0 PUSH2 0xAE6 PUSH1 0x10 DUP4 PUSH2 0xA3A JUMP JUMPDEST SWAP2 POP PUSH2 0xAF1 DUP3 PUSH2 0xAB2 JUMP JUMPDEST PUSH1 0x20 DUP3 ADD SWAP1 POP SWAP2 SWAP1 POP JUMP JUMPDEST PUSH0 PUSH1 0x20 DUP3 ADD SWAP1 POP DUP2 DUP2 SUB PUSH0 DUP4 ADD MSTORE PUSH2 0xB13 DUP2 PUSH2 0xADA JUMP JUMPDEST SWAP1 POP SWAP2 SWAP1 POP JUMP JUMPDEST PUSH32 0x4E487B7100000000000000000000000000000000000000000000000000000000 PUSH0 MSTORE PUSH1 0x11 PUSH1 0x4 MSTORE PUSH1 0x24 PUSH0 REVERT JUMPDEST PUSH0 PUSH2 0xB51 DUP3 PUSH2 0x9B4 JUMP JUMPDEST SWAP2 POP PUSH32 0xFFFFFFFFFFFFFFFFFFFFFFFFFFFFFFFFFFFFFFFFFFFFFFFFFFFFFFFFFFFFFFFF DUP3 SUB PUSH2 0xB83 JUMPI PUSH2 0xB82 PUSH2 0xB1A JUMP JUMPDEST JUMPDEST PUSH1 0x1 DUP3 ADD SWAP1 POP SWAP2 SWAP1 POP JUMP JUMPDEST PUSH2 0xB97 DUP2 PUSH2 0x93B JUMP JUMPDEST DUP3 MSTORE POP POP JUMP JUMPDEST PUSH0 PUSH1 0x40 DUP3 ADD SWAP1 POP PUSH2 0xBB0 PUSH0 DUP4 ADD DUP6 PUSH2 0xB8E JUMP JUMPDEST PUSH2 0xBBD PUSH1 0x20 DUP4 ADD DUP5 PUSH2 0x89F JUMP JUMPDEST SWAP4 SWAP3 POP POP POP JUMP INVALID LOG2 PUSH5 0x6970667358 0x22 SLT KECCAK256 DUP8 ADDMOD PUSH32 0xB3AECF5A331AE72A56F8B3E678B7996B3D4FA0DF5DB0C169B80FA356F464736F PUSH13 0x634300081E0033000000000000 "
		},
		"gasEstimates": {
			"creation": {
				"codeDepositCost": "613200",
				"executionCost": "infinite",
				"totalCost": "infinite"
			},
			"external": {
				"DEFAULT_ADMIN_ROLE()": "395",
				"OPERATE_COUNTER()": "348",
				"SET_NUMBER_ROLE()": "347",
				"getRoleAdmin(bytes32)": "infinite",
				"grantRole(bytes32,address)": "infinite",
				"hasRole(bytes32,address)": "3164",
				"increment()": "26951",
				"number()": "2425",
				"renounceRole(bytes32,address)": "infinite",
				"revokeRole(bytes32,address)": "infinite",
				"setNumber(uint256)": "24992",
				"supportsInterface(bytes4)": "718"
			}
		},
		"methodIdentifiers": {
			"DEFAULT_ADMIN_ROLE()": "a217fddf",
			"OPERATE_COUNTER()": "0d67b845",
			"SET_NUMBER_ROLE()": "8f4d8dd6",
			"getRoleAdmin(bytes32)": "248a9ca3",
			"grantRole(bytes32,address)": "2f2ff15d",
			"hasRole(bytes32,address)": "91d14854",
			"increment()": "d09de08a",
			"number()": "8381f58a",
			"renounceRole(bytes32,address)": "36568abe",
			"revokeRole(bytes32,address)": "d547741f",
			"setNumber(uint256)": "3fb5c1cb",
			"supportsInterface(bytes4)": "01ffc9a7"
		}
	},
	"abi": [
		{
			"inputs": [],
			"stateMutability": "nonpayable",
			"type": "constructor"
		},
		{
			"inputs": [],
			"name": "AccessControlBadConfirmation",
			"type": "error"
		},
		{
			"inputs": [
				{
					"internalType": "address",
					"name": "account",
					"type": "address"
				},
				{
					"internalType": "bytes32",
					"name": "neededRole",
					"type": "bytes32"
				}
			],
			"name": "AccessControlUnauthorizedAccount",
			"type": "error"
		},
		{
			"anonymous": false,
			"inputs": [
				{
					"indexed": true,
					"internalType": "bytes32",
					"name": "role",
					"type": "bytes32"
				},
				{
					"indexed": true,
					"internalType": "bytes32",
					"name": "previousAdminRole",
					"type": "bytes32"
				},
				{
					"indexed": true,
					"internalType": "bytes32",
					"name": "newAdminRole",
					"type": "bytes32"
				}
			],
			"name": "RoleAdminChanged",
			"type": "event"
		},
		{
			"anonymous": false,
			"inputs": [
				{
					"indexed": true,
					"internalType": "bytes32",
					"name": "role",
					"type": "bytes32"
				},
				{
					"indexed": true,
					"internalType": "address",
					"name": "account",
					"type": "address"
				},
				{
					"indexed": true,
					"internalType": "address",
					"name": "sender",
					"type": "address"
				}
			],
			"name": "RoleGranted",
			"type": "event"
		},
		{
			"anonymous": false,
			"inputs": [
				{
					"indexed": true,
					"internalType": "bytes32",
					"name": "role",
					"type": "bytes32"
				},
				{
					"indexed": true,
					"internalType": "address",
					"name": "account",
					"type": "address"
				},
				{
					"indexed": true,
					"internalType": "address",
					"name": "sender",
					"type": "address"
				}
			],
			"name": "RoleRevoked",
			"type": "event"
		},
		{
			"inputs": [],
			"name": "DEFAULT_ADMIN_ROLE",
			"outputs": [
				{
					"internalType": "bytes32",
					"name": "",
					"type": "bytes32"
				}
			],
			"stateMutability": "view",
			"type": "function"
		},
		{
			"inputs": [],
			"name": "OPERATE_COUNTER",
			"outputs": [
				{
					"internalType": "bytes32",
					"name": "",
					"type": "bytes32"
				}
			],
			"stateMutability": "view",
			"type": "function"
		},
		{
			"inputs": [],
			"name": "SET_NUMBER_ROLE",
			"outputs": [
				{
					"internalType": "bytes32",
					"name": "",
					"type": "bytes32"
				}
			],
			"stateMutability": "view",
			"type": "function"
		},
		{
			"inputs": [
				{
					"internalType": "bytes32",
					"name": "role",
					"type": "bytes32"
				}
			],
			"name": "getRoleAdmin",
			"outputs": [
				{
					"internalType": "bytes32",
					"name": "",
					"type": "bytes32"
				}
			],
			"stateMutability": "view",
			"type": "function"
		},
		{
			"inputs": [
				{
					"internalType": "bytes32",
					"name": "role",
					"type": "bytes32"
				},
				{
					"internalType": "address",
					"name": "account",
					"type": "address"
				}
			],
			"name": "grantRole",
			"outputs": [],
			"stateMutability": "nonpayable",
			"type": "function"
		},
		{
			"inputs": [
				{
					"internalType": "bytes32",
					"name": "role",
					"type": "bytes32"
				},
				{
					"internalType": "address",
					"name": "account",
					"type": "address"
				}
			],
			"name": "hasRole",
			"outputs": [
				{
					"internalType": "bool",
					"name": "",
					"type": "bool"
				}
			],
			"stateMutability": "view",
			"type": "function"
		},
		{
			"inputs": [],
			"name": "increment",
			"outputs": [],
			"stateMutability": "nonpayable",
			"type": "function"
		},
		{
			"inputs": [],
			"name": "number",
			"outputs": [
				{
					"internalType": "uint256",
					"name": "",
					"type": "uint256"
				}
			],
			"stateMutability": "view",
			"type": "function"
		},
		{
			"inputs": [
				{
					"internalType": "bytes32",
					"name": "role",
					"type": "bytes32"
				},
				{
					"internalType": "address",
					"name": "callerConfirmation",
					"type": "address"
				}
			],
			"name": "renounceRole",
			"outputs": [],
			"stateMutability": "nonpayable",
			"type": "function"
		},
		{
			"inputs": [
				{
					"internalType": "bytes32",
					"name": "role",
					"type": "bytes32"
				},
				{
					"internalType": "address",
					"name": "account",
					"type": "address"
				}
			],
			"name": "revokeRole",
			"outputs": [],
			"stateMutability": "nonpayable",
			"type": "function"
		},
		{
			"inputs": [
				{
					"internalType": "uint256",
					"name": "newNumber",
					"type": "uint256"
				}
			],
			"name": "setNumber",
			"outputs": [],
			"stateMutability": "nonpayable",
			"type": "function"
		},
		{
			"inputs": [
				{
					"internalType": "bytes4",
					"name": "interfaceId",
					"type": "bytes4"
				}
			],
			"name": "supportsInterface",
			"outputs": [
				{
					"internalType": "bool",
					"name": "",
					"type": "bool"
				}
			],
			"stateMutability": "view",
			"type": "function"
		}
	]
}